:020000040000FA
:10000000700200106901000071010000730100001E
:1000100000000000000000000000000000000000E0
:10002000000000000000000000000000750100005A
:1000300000000000000000007701000079010000CE
:100040007B0100007B0100007B0100007B010000C0
:100050007B0100007B0100007B0100007B010000B0
:100060007B0100007B0100007B0100007B010000A0
:100070007B0100007B0100007B0100007B01000090
:100080007B0100007B0100007B0100007B01000080
:100090007B0100007B0100007B0100007B01000070
:1000A0007B0100007B0100007B0100007B01000060
:1000B0007B0100007B0100007B0100007B01000050
:1000C00000F002F800F040F80CA030C808382418FE
:1000D0002D18A246671EAB4654465D46AC4201D180
:1000E00000F032F87E460F3E0FCCB6460126334272
:1000F00000D0FB1AA246AB4633431847DC0300008E
:10010000FC030000103A02D378C878C1FAD852072D
:1001100001D330C830C101D504680C6070470000BD
:100120000023002400250026103A01D378C1FBD813
:10013000520700D330C100D50B6070471FB5C046D1
:10014000C0461FBD10B510BD00F09BF81146FFF76B
:10015000F5FF00F00AF900F0B3F803B4FFF7F2FF7F
:1001600003BC00F0B7F80000074880470748004785
:10017000FEE7FEE7FEE7FEE7FEE7FEE70448054987
:10018000034A054B704700002B020000C10000002D
:100190007000001070020010700000103149324AE7
:1001A00011600021314A116001215160002151602C
:1001B0000121516000BF2D494968C907C90FFAD014
:1001C0002A4940398868400A40022021014303221D
:1001D0001143264A403A91602549896B8022914318
:1001E000234A916300BF21494039C968C907C90F33
:1001F000F9D003211D4A116301215163002151638C
:100200000121516300BF1949496BC907C90FFAD0D1
:100210000121164A9163144909688900154A116041
:1002200011460968144A1160704700B500200F4953
:10023000403908620E48806B202188430C4988634E
:10024000002300E05B1CFF2BFCD9FFF7A7FF07484A
:100250004030006801210904084304494031086026
:1002600000BD0000001BB7000000001040800440EB
:10027000008204400400001008000010704770471E
:100280007047754600F022F8AE46050069465346B1
:10029000C008C000854618B020B5FFF76FFF60BCEE
:1002A00000274908B6460026C0C5C0C5C0C5C0C5A0
:1002B000C0C5C0C5C0C5C0C5403D49008D467047DA
:1002C0000446C046C0462046FFF747FF0048704737
:1002D0000C00001001491820ABBEFEE7260002000A
:1002E0007047000000000000000000000000000057
:1002F000000000000000000000000000FFFFFFFF02
:100300000CE000BF00BF00BF00BF00BF00BF00BFC8
:1003100000BF00BF00BF00BF00BF00BF0146401EBE
:100320000029EED1704710B5044608E0002304E030
:10033000FA20FFF7E5FF581CC3B2042BF8DB204678
:10034000641E0028F2D110BD30B50446002509E036
:10035000FE205E49086018200860E1208000FFF759
:10036000E2FF6D1CA542F3DD30BD5948806A0121D2
:100370000843574988625748006801210903084328
:10038000544908600846806904210843514988613E
:100390004E488068012108434C4988600846C0687F
:1003A000802108434949C860A72088622E20086040
:1003B0000846C068802188434449C8600846C06830
:1003C000032108434149C8607D200001FFF7ABFFCE
:1003D000FE203E49086082200860462008606420B4
:1003E000FFF7A1FF6520394908606420FFF79BFFF4
:1003F0006C20364908606420FFF795FF6920334977
:1004000008606420FFF78FFF632030490860642094
:10041000FFF789FF69202D4908606420FFF783FFFB
:1004200064202A490860FFF77EFF612027490860A1
:100430006420FFF778FF642024490860FFF773FF0A
:100440006520224908606420FFF76DFF73201F4973
:1004500008606420FFF767FFFE201C490860C52084
:100460000860492008606420FFF75DFF6E2017498F
:1004700008606420FFF757FF672014490860642074
:10048000FFF751FF6520114908606420FFF74BFF1B
:1004900021200E4908606420FFF745FF21200B4909
:1004A00008606420FFF73FFF2120084908606420AE
:1004B000FFF739FF1A20FFF747FF00BFFEE77C2058
:1004C0000249086009200860704700000080004071
:1004D0008040044080800440F804000000000010C8
:1004E0000C00000004010000040500000C000010D6
:1004F000640200002001000000093D0000093D00E9
:0405000000093D00B1
:04000005000001698D
:00000001FF
