:020000040000FA
:10000000700200106901000071010000730100001E
:1000100000000000000000000000000000000000E0
:10002000000000000000000000000000750100005A
:1000300000000000000000007701000079010000CE
:100040007B0100007B0100007B0100007B010000C0
:100050007B0100007B0100007B0100007B010000B0
:100060007B0100007B0100007B0100007B010000A0
:100070007B0100007B0100007B0100007B01000090
:100080007B0100007B0100007B0100007B01000080
:100090007B0100007B0100007B0100007B01000070
:1000A0007B0100007B0100007B0100007B01000060
:1000B0007B0100007B0100007B0100007B01000050
:1000C00000F002F800F040F80CA030C808382418FE
:1000D0002D18A246671EAB4654465D46AC4201D180
:1000E00000F032F87E460F3E0FCCB6460126334272
:1000F00000D0FB1AA246AB4633431847E803000082
:1001000008040000103A02D378C878C1FAD8520720
:1001100001D330C830C101D504680C6070470000BD
:100120000023002400250026103A01D378C1FBD813
:10013000520700D330C100D50B6070471FB5C046D1
:10014000C0461FBD10B510BD00F09BF81146FFF76B
:10015000F5FF00F0FFF800F0B3F803B4FFF7F2FF8B
:1001600003BC00F0B7F80000074880470748004785
:10017000FEE7FEE7FEE7FEE7FEE7FEE70448054987
:10018000034A054B704700002B020000C10000002D
:100190007000001070020010700000103149324AE7
:1001A00011600021314A116001215160002151602C
:1001B0000121516000BF2D494968C907C90FFAD014
:1001C0002A4940398868400A40022021014303221D
:1001D0001143264A403A91602549896B8022914318
:1001E000234A916300BF21494039C968C907C90F33
:1001F000F9D003211D4A116301215163002151638C
:100200000121516300BF1949496BC907C90FFAD0D1
:100210000121164A9163144909688900154A116041
:1002200011460968144A1160704700B500200F4953
:10023000403908620E48806B202188430C4988634E
:10024000002300E05B1CFF2BFCD9FFF7A7FF07484A
:100250004030006801210904084304494031086026
:1002600000BD0000001BB7000000001040800440EB
:10027000008204400400001008000010704770471E
:100280007047754600F022F8AE46050069465346B1
:10029000C008C000854618B020B5FFF76FFF60BCEE
:1002A00000274908B6460026C0C5C0C5C0C5C0C5A0
:1002B000C0C5C0C5C0C5C0C5403D49008D467047DA
:1002C0000446C046C0462046FFF747FF0048704737
:1002D0000C00001001491820ABBEFEE7260002000A
:1002E0007047000000000000000000000000000057
:1002F000000000000000000000000000FFFFFFFF02
:100300007C20754908600A20086070470CE000BF37
:1003100000BF00BF00BF00BF00BF00BF00BF00BFE5
:1003200000BF00BF00BF00BF0146401E0029EED144
:10033000704710B5044608E0002304E0FA20FFF7F8
:10034000E5FF581CC3B2042BF8DB2046641E0028CE
:10035000F2D110BD00B56148806A012108435F49B0
:1003600088625F4800680121090308435C4908600E
:1003700008468069042108435949886156488068C5
:1003800001210843544988600846C0688021084319
:100390005149C860A72088622E2008600846C068BE
:1003A000802188434C49C8600846C068032108433F
:1003B0004949C8607D200001FFF7BBFFFE20464988
:1003C000086082200860462008606420FFF7B1FFC3
:1003D0006520414908606420FFF7ABFF6C203E496F
:1003E00008606420FFF7A5FF69203B49086064208E
:1003F000FFF79FFF6320384908606420FFF799FFEB
:100400006920354908606420FFF793FF6420324972
:100410000860FFF78EFF61202F4908606420FFF716
:1004200088FF64202C490860FFF783FF65202A4974
:1004300008606420FFF77DFF73202749086064206F
:10044000FFF777FFFE2024490860C5200860492097
:1004500008606420FFF76DFF6E201F49086064206C
:10046000FFF767FF67201C4908606420FFF761FF02
:100470006520194908606420FFF75BFF21201649B9
:1004800008606420FFF755FF2120134908606420AD
:10049000FFF74FFF2120104908606420FFF749FF54
:1004A000FFF72EFF002000BD30B50446002509E00F
:1004B000FE200949086018200860E1208000FFF74D
:1004C00038FF6D1CA542F3DD30BD7C200249086079
:1004D0000920086070470000008000408040044010
:1004E0008080044004050000000000100C000000A3
:1004F00004010000100500000C0000106402000060
:100500002001000000093D0000093D0000093D00F8
:04000005000001698D
:00000001FF
