:020000040000FA
:10000000700200106901000071010000730100001E
:1000100000000000000000000000000000000000E0
:10002000000000000000000000000000750100005A
:1000300000000000000000007701000079010000CE
:100040007B0100007B0100007B0100007B010000C0
:100050007B0100007B0100007B0100007B010000B0
:100060007B0100007B0100007B0100007B010000A0
:100070007B0100007B0100007B0100007B01000090
:100080007B0100007B0100007B0100007B01000080
:100090007B0100007B0100007B0100007B01000070
:1000A0007B0100007B0100007B0100007B01000060
:1000B0007B0100007B0100007B0100007B01000050
:1000C00000F002F800F040F80CA030C808382418FE
:1000D0002D18A246671EAB4654465D46AC4201D180
:1000E00000F032F87E460F3E0FCCB6460126334272
:1000F00000D0FB1AA246AB46334318472004000049
:1001000040040000103A02D378C878C1FAD85207E8
:1001100001D330C830C101D504680C6070470000BD
:100120000023002400250026103A01D378C1FBD813
:10013000520700D330C100D50B6070471FB5C046D1
:10014000C0461FBD10B510BD00F09BF81146FFF76B
:10015000F5FF00F058F900F0B3F803B4FFF7F2FF31
:1001600003BC00F0B7F80000074880470748004785
:10017000FEE7FEE7FEE7FEE7FEE7FEE70448054987
:10018000034A054B704700002B020000C10000002D
:100190007000001070020010700000103149324AE7
:1001A00011600021314A116001215160002151602C
:1001B0000121516000BF2D494968C907C90FFAD014
:1001C0002A4940398868400A40022021014303221D
:1001D0001143264A403A91602549896B8022914318
:1001E000234A916300BF21494039C968C907C90F33
:1001F000F9D003211D4A116301215163002151638C
:100200000121516300BF1949496BC907C90FFAD0D1
:100210000121164A9163144909688900154A116041
:1002200011460968144A1160704700B500200F4953
:10023000403908620E48806B202188430C4988634E
:10024000002300E05B1CFF2BFCD9FFF7A7FF07484A
:100250004030006801210904084304494031086026
:1002600000BD0000001BB7000000001040800440EB
:10027000008204400400001008000010704770471E
:100280007047754600F022F8AE46050069465346B1
:10029000C008C000854618B020B5FFF76FFF60BCEE
:1002A00000274908B6460026C0C5C0C5C0C5C0C5A0
:1002B000C0C5C0C5C0C5C0C5403D49008D467047DA
:1002C0000446C046C0462046FFF747FF0048704737
:1002D0000C00001001491820ABBEFEE7260002000A
:1002E0007047000000000000000000000000000057
:1002F000000000000000000000000000FFFFFFFF02
:100300000CE000BF00BF00BF00BF00BF00BF00BFC8
:1003100000BF00BF00BF00BF00BF00BF0146401EBE
:100320000029EED1704710B5044608E0002304E030
:10033000FA20FFF7E5FF581CC3B2042BF8DB204678
:10034000641E0028F2D110BD30B50446002509E036
:10035000FE205949086018200860E1208000FFF75E
:10036000E2FF6D1CA542F3DD30BDFE20524908605E
:100370000120086070477C204F4908600920086010
:1003800070477C204C4908600A2008607047F7B528
:100390000646144600250027012C06D100E07F1CEC
:1003A00028466D1C305C0028F9D100251DE0102D79
:1003B00014D1012C01D0022C08D1FE203E49086046
:1003C000942008606420FFF7AEFF07E0FE203A4962
:1003D0000860C02008603220FFF7A5FF705D364935
:1003E00008600198FFF79FFF6D1C705D0028DED14B
:1003F000012C02D13846FFF7A7FF022C02D12F486B
:10040000FFF7A2FFFEBD00B52D48806A0121084319
:100410002B4988622B4800680121090308432949B8
:1004200008600846806904210843264988612248FB
:10043000806801210843204988600846C0688021FF
:1004400008431D49C860A72088622E20086008461E
:10045000C068802188431849C8600846C0680321E5
:1004600008431549C8607D200001FFF75CFF0022AA
:10047000642115A0FFF78BFF7D20C000FFF753FF1D
:10048000FFF773FF7D20C000FFF74DFF01226421BD
:1004900016A0FFF77CFF7D20C000FFF744FFFFF7A9
:1004A00064FF7D20C000FFF73EFF0222642115A0FB
:1004B000FFF76DFF002000BD00800040FFFF0F0030
:1004C0008040044080800440202020206573746FA9
:1004D00020657320756E20206D656E73616A6520DE
:1004E000657374617469636F0000000065737465FF
:1004F000207365207075656465206465736C697A26
:1005000061720000792065737465206573746520DD
:10051000657320696E66696E69746F003C05000042
:10052000000000100C00000004010000480500005D
:100530000C000010640200002001000000093D00D2
:0805400000093D0000093D0027
:04000005000001698D
:00000001FF
