:020000040000FA
:1000000070020010890100009101000093010000BE
:1000100000000000000000000000000000000000E0
:10002000000000000000000000000000950100003A
:10003000000000000000000097010000990100008E
:100040009B0100009B0100009B0100009B01000040
:100050009B0100009B0100009B0100009B01000030
:100060009B0100009B0100009B0100009B01000020
:100070009B0100009B0100009B0100009B01000010
:100080009B0100009B0100009B0100009B01000000
:100090009B0100009B0100009B0100009B010000F0
:1000A0009B0100009B0100009B0100009B010000E0
:1000B0009B0100009B0100009B0100009B010000D0
:1000C00000F002F800F050F80CA030C808382418EE
:1000D0002D18A246671EAB4654465D46AC4201D180
:1000E00000F042F87E460F3E0FCCB6460126334262
:1000F00000D0FB1AA246AB463343184760240000E9
:1001000080240000103A02D378C878C1FAD8520788
:1001100001D330C830C101D504680C6070470000BD
:100120000023002400250026103A01D378C1FBD813
:10013000520700D330C100D50B60704710B5662957
:1001400002D102F079F910BD002010BD1FB5C046E4
:10015000C04601F00BFB04000020002101F0FAFF73
:10016000E0601FBD10B510BD01F078FE1146FFF72D
:10017000EDFF00F02EFA01F090FE03B4FFF7F2FF5E
:1001800003BC01F0B1FF0000074880470748004763
:10019000FEE7FEE7FEE7FEE7FEE7FEE70448054967
:1001A000034A054B704700004B020000C1000000ED
:1001B0007000001070020010700000103149324AC7
:1001C00011600021314A116001215160002151600C
:1001D0000121516000BF2D494968C907C90FFAD0F4
:1001E0002A4940398868400A4002202101430322FD
:1001F0001143264A403A91602549896B80229143F8
:10020000234A916300BF21494039C968C907C90F12
:10021000F9D003211D4A116301215163002151636B
:100220000121516300BF1949496BC907C90FFAD0B1
:100230000121164A9163144909688900154A116021
:1002400011460968144A1160704700B500200F4933
:10025000403908620E48806B202188430C4988632E
:10026000002300E05B1CFF2BFCD9FFF7A7FF07482A
:100270004030006801210904084304494031086006
:1002800000BD0000001BB7000000001040800440CB
:100290000082044004000010080000100FB41CB5D8
:1002A000074B06AA7B4469460090059800F013F8B6
:1002B0000020694601F022FA1CBC08BC04B01847B3
:1002C00055140000704770477047000001694A1CD0
:1002D00002610878704700B58FB002910021059146
:1002E000054901937944039111460490684600F052
:1002F00037FA0FB000BD0000E5FFFFFFFFFFFFFF73
:100300000CE000BF00BF00BF00BF00BF00BF00BFC8
:1003100000BF00BF00BF00BF00BF00BF0146401EBE
:100320000029EED1704710B5044608E0002304E030
:10033000FA20FFF7E5FF581CC3B2042BF8DB204678
:10034000641E0028F2D110BD30B50446002509E036
:10035000FE20ED49086018200860E1208000FFF7CA
:10036000E2FF6D1CA542F3DD30BDFE20E6490860CA
:100370000120086070477C21E34A11601146086043
:100380007047FE20E04908600C2008607047FE209E
:10039000DD490860082008607047FE20DA490860DF
:1003A0000D2008607047FE21D74A11600146803158
:1003B000116070477C20D4490860092008607047AC
:1003C0007C20D14908600A2008607047F7B50646CE
:1003D000144600250027012C06D100E07F1C28468A
:1003E0006D1C305C0028F9D100251DE0102D14D1C2
:1003F000012C01D0022C08D1FE20C34908609420B2
:1004000008606420FFF78FFF07E0FE20BE49086008
:10041000C02008603220FFF786FF705DBA4908608F
:100420000198FFF780FF6D1C705D0028DED1012C64
:1004300002D13846FFF788FF022C02D1B348FFF7FC
:1004400083FFFEBD10B5002221E00BE0B04B9B699D
:100450005B1CAF4CA36100E0491CAE4B9942FBDB37
:100460000021401C0A28F1DB002000210BE0A84BF2
:100470009B695B1EA64CA36100E0491CA54B9942F9
:10048000FBDB0021401C0A28F1DB00200021A24BED
:100490009A42DADB10BDA148806B102188439F4946
:1004A00088639F4800680121490308439C4908600C
:1004B0009C48406B8F2188439A4948630846406BAB
:1004C0000A210843974948639748984908600846B5
:1004D0000068974908409549086008460068890205
:1004E0008843924908607047904A126801231B06AE
:1004F0001A438E4B1A6000BF8C4A5268D20FD20743
:10050000FAD08A4A1169126807231B069A43874B5F
:100510001A600A04900D704782484030806A0121B9
:1005200008438049403188627D4800680121090301
:1005300008437B49086008468069042108437849DC
:10054000886171488068012108436F4988600846C6
:10055000C068802108436C49C860A72088622E20AB
:1005600008600846C068802188436749C86008461B
:10057000C068032108436449C86070476848006840
:10058000FF21013108436649086066484038806BA6
:100590000121084363494039886300205C49886130
:1005A0006448C8600A204862084640690915084343
:1005B0005749486156484030406B0121084354492F
:1005C000403148635248406801210843504948601F
:1005D000704786B000200590049000BF0390FFF79D
:1005E0009BFFFFF758FF50483D38FFF79CFE89E01E
:1005F000FFF77AFF0590059800F013FD06464E4A76
:100600004E4B00F019FD00224D4B0191009000F07F
:10061000C1FA044600F0DAF80490049800F038FEBD
:100620000446454A454B00F093FA02460B460191B9
:1006300000900020434900F0ADFA064600F0C6F8ED
:1006400003907F21C905039801F062FE0DD83E4951
:10065000039801F0DBFD08D23C49039801F084FEC9
:100660000546002101F0FCFD04463749039801F0DE
:100670004FFE0DD83649039801F0C8FD08D2324923
:10068000039801F071FE0546002101F0E9FD0446E2
:100690002F49039801F03CFE0DD82E49039801F034
:1006A000B5FD08D22A49039801F05EFE05460021F7
:1006B00001F0D6FD04462749039801F029FE0DD824
:1006C0002549039801F0A2FD08D22249039801F0C0
:1006D0004BFE0546002101F0C3FD0446039800F0DF
:1006E000D7FD044622460B461CA10298FFF7D6FD13
:1006F000002264210298FFF769FE6420FFF713FED1
:10070000FFF733FE74E7000000800040FFFF0F009A
:10071000000001409F860100E703000000820440C2
:100720008080044040400440010A000000C00140B5
:10073000FFFFFCFEE02E00006666666666660A4005
:100740000000904000408FC00040544400C0494425
:100750000080604400C06D4400007A4425660000BB
:10076000F8B50E460446002020622046E16888471E
:10077000002829D0252802D06268A16820E0E1681D
:1007800020460027884705001ED0284641381928F2
:1007900002D80127FF02203532462046276029462D
:1007A000FFF7CCFC002808D0012804D0F61DF6087D
:1007B000F6000836D9E7361DD7E762682846A168F3
:1007C0009047206A401CCFE7206AF8BD0246C80F58
:1007D000C00781434B0030B54B405B009B0D20D0E0
:1007E0001923DB06C91801231B05994220DB0324CA
:1007F000A40704251346AB400BD3002B04D1EB0612
:1008000013409B001B1904D4012464070023121910
:100810005941FF231B0599420BD2C9000143500FD8
:1008200009E0CB0204D501430803024305D0054883
:1008300030BDFF21C905084330BD08460721090521
:10084000884330BD0000C07FF0B50C46871A9C413C
:100850000D46861A9D4103D2C01BA141D2196341A6
:100860000D0D1F0DC64EEC1BAE435BD07F057F0DFB
:100870000026002F50D02D05AC46A943DD020123F0
:10088000ED0A1B051D4320231B1B23D41746E740FD
:10089000381871412F46E740CC199D402818314641
:1008A00061410C0D26D161449A4012D50023401CB1
:1008B000594152000DD140084000B24A4B009342CA
:1008C00007D305204007081801D5511000E0AE49B4
:1008D0003046F0BD6B00002A00D001229A18203C5F
:1008E0001F231B1B01D5002302E0E540281871419E
:1008F0000C0DD8D0012424050919C407CD074008E0
:100900004908E40F28436144002CD6D00024401C41
:1009100061419A40D1D1CEE76A05520DD9D1C90FB4
:10092000C907D5E7974D4E00002801D0012400E00B
:10093000002434195F00002A01D0012600E00026BF
:10094000BE19924FAC420BD8AE4209D8B44205D082
:10095000BD00AC42BDD010461946F0BD9942FCD056
:1009600000203946F0BDF0B51FB40C460F46811A81
:100970009F412546861A9D4106D20125ED076F400D
:10098000401ABC4152187B41210D1E0D8D1BAC46F7
:100990007B4D8D437ED075056D0D7CD00D05AE462B
:1009A000AC431B031B0B7A4D52429D4120236646EC
:1009B0009B1B14D31746F74038180026009074414B
:1009C00060462F460741E41900989D40281866416B
:1009D00016D4714671189A4025D5012320E093184A
:1009E0002A466A415200002B00D0521C203E1E2392
:1009F0009B1B002B61DD3541EE1728186641E8D5B9
:100A0000001876415B1C9A4000D3401C4B05F3183C
:100A10001524E34010D3002B52D071467118D30F28
:100A2000C01802D3491C05B0F0BD0123DB079A4270
:100A3000F9D140084000F6E701225205B21801D171
:100A4000002853D00123CC0ADB029943891E002AD7
:100A500008D1020C03D0020C0004103902E0024657
:100A6000002020390023550B05D112020823550B15
:100A700001D152010D23550C01D112011B1DD50CC2
:100A800001D192009B1C150D01D152005B1C202549
:100A9000EE1A01E02CE022E00546F54015439840AF
:100AA000CA1AE10769181305C918002ABBDA03201E
:100AB00040070818C10FC9070FE071466118B2E777
:100AC000F10740080843711071444A000CD001231B
:100AD0005B059A42A7D2C90FC9070020A3E74905C1
:100AE000490D25D1002001E00028F4D100219AE72A
:100AF000244D6600002801D0012100E0002171187A
:100B00005F00002A01D0012600E00026BE191F4F19
:100B1000A9420FD8AE420DD8B14207D0BD00A942BC
:100B200006D01946A802414010467CE79C4201D0FD
:100B3000214678E70020394675E730B40C465C4022
:100B400004D50124E407634030BC0CE730BC7BE6ED
:100B500030B40C465C4004D50124E407634030BC4B
:100B600072E630BCFFE630B40124E40761400D4674
:100B70005D4001D430BC67E6634030BCF3E6000062
:100B8000FF0700000000E0FF0000F07F0000F87F9A
:100B90000000F0FFF0B51FB4FA4F0E091D09BC4666
:100BA0003E403D400C46B7435C408CB0002F7DD0AA
:100BB0006746AF43FBD0002D79D0002EFCD0E20F6A
:100BC0003243521BFF24A40412190892420DCD0295
:100BD000C7020E981543420DD9021143C2026003A9
:100BE00005430143080C0195150CAC4605040B4662
:100BF000AB430A9565462D04AA430995E24D040AC4
:100C00007D446419803C257806466E43012476199C
:100C1000E405A61B7543ED0CAD1C490B694349194E
:100C2000A401611A0E0CB6463604B14369437646F8
:100C30006E43090C711889090591F90700D0A100CC
:100C4000049101997F08CC0727434C08059DE10BCF
:100C50004D432D0C29466646754302950D46454386
:100C60002E46029D7D1BB44100950D465D430194C7
:100C70002C0C2F040D465543AE462D0C3D430295DA
:100C800003947546049C2D04641B049406D2029CB4
:100C9000039D641C002675410395029401AC70CC41
:100CA000009F7D1BB4410904009501E03BE15FE139
:100CB000079101940599A4086143090C0C4644432B
:100CC000650BE70464464C43A646640B3C4303951E
:100CD00002947446049DE4042C1B049406D2029CE6
:100CE000039D641C002675410395029401AC70CCF1
:100CF000009F7D1BB44101940C465C430095650F39
:100D0000E7000C465443A646640F3C430395029407
:100D10007446049DE4002C1B049406D2029C039D9F
:100D2000641C002675410395029401AC70CC009FB1
:100D30007D1BB441AE09AF06049DC900AD092F4328
:100D4000049DA406AD060495079D344369180791D8
:100D5000059DE10B4D432D0C2946664675430295D2
:100D60000D4645432E46029D7D1BB44100950D4620
:100D70005D4301942C0C2F040D465543AE462D0CBB
:100D80003D43029503947546049C2D04641B049412
:100D900006D2029C039D641C0026754103950294B3
:100DA00001AC70CC009F7D1BB44101948C0506946E
:100DB000079C890A611800950791019C0599A40870
:100DC0006143090C0D464543680BEF040D4664462C
:100DD00065436C0B3C43049FED047D1BAC4602D283
:100DE0000025641C6841009E019D371B8541084613
:100DF000584301950C46460FC5005443600F2843E5
:100E00006546E4002C1B02D20025401C6E41019D6A
:100E10003F1AB5412846BD09800628438446A009EB
:100E2000BF064E020699A40676180743079D0020C8
:100E300068410A99079019430020099B0090604679
:100E4000FF1913434041E20F64003A43A4460446AD
:100E5000D71A8C41A04203D90120009020463A467F
:100E6000C70F941840416246D20F22436446640083
:100E70000494009CBE466400D71AA4460446029718
:100E80008C417746002F01D1A04204D96046401C16
:100E90008446029A2046C40FA64694184041049AFC
:100EA0000546D20F224364466400D31A8D41714631
:100EB000002901D1A84202D9641C28461A461043D1
:100EC0000122002800D0164361020020079B04463F
:100ED00089195C410223002C02DB49181346644146
:100EE000089DCE0A2D145D194B056705E10A2C05F6
:100EF0000C1908993E43C9076140002B08D0934064
:100F000006D30022761C5141002B01D176087600D1
:100F10001E4A002C45DB2346134242D0A24340D058
:100F2000304611B0F0BD0E4607184E41184D7A42BA
:100F3000B5411AD30E9A1D4696185D41144A764261
:100F4000AA4112D3012252054D00D5420AD15C00BC
:100F5000D4420AD04B4002D592021143E1E7490046
:100F60004908DEE7E10FC9070AE000200949D8E790
:100F70000648014212D0084821460143C0124140B0
:100F80000020CEE70000FF07441800000000F07FBB
:100F90000000E0FF0000F87FFFFFFF7F0342E4D086
:100FA000E0E70123089A9B069A4205DC03225207D8
:100FB0008918C90FC907B4E7052252078918074ADB
:100FC0001143D2125140ACE75940504010B54B404C
:100FD000424059405040FFF7DDFD10BDFFFFFF7F4D
:100FE0001F22030C02D10F22000402D0030E03D0F3
:100FF00004E0002001467047083A0002030F01D1C7
:10100000121F0001830F01D1921E8000002801DB16
:10101000521E4000120551184205C01241181046D8
:101020007047C10FC90700D0404201229207114307
:10103000D6E701218907D3E7F0B5904C0D09264684
:10104000AC46AE430D465D4087B0002E7ED01E09F3
:101050002746B743FAD067462740ED0F3D43264069
:1010600075D024012142FBD07419FF25AD04641B07
:101070000494CC02D90201231B05C90A1943E40ACE
:101080001C430F012401030F110F1C430F430501E3
:10109000A10B88032D0916018443A80B82039543F5
:1010A000BB0B9A0397433609BC46B20B9703BE436A
:1010B0000746574303972F4677430296BE46029F43
:1010C0004619D71906967E430597039FF71B764668
:1010D000BE1B77463F0100970196039FB60BF6199A
:1010E000B646019E009FB604BF1902D37646761C11
:1010F000B64676467600002F01D001273E4367466C
:101100007D43AE46029F25467D4300956D00AE1996
:1011100075466D00AF1965465D19069E03956E43D1
:101120007546751BAE460D19059E02956E43009DD2
:101130005843761B75462D1A4A439646B21A0092BA
:101140000195FA0606D07D09012201E076E072E001
:10115000154300E07D09020A0006002745197A417F
:101160007646300A360676195041019A950D92025C
:10117000961945410098820D800280196A415943B1
:1011800063465C43039D029B6B435B1A1E1BB30EBD
:10119000B601B6187B410A0B090589195A41230A81
:1011A000240624184B418B4200D2521C01204002DD
:1011B000824203D315210226F64302E014210326BE
:1011C000F6432020451AAA401F46AF40CB40204698
:1011D000C840049913430914711809055A18049951
:1011E0003843C9075140AC4009D001239C4006D385
:1011F0000023401C5941002C01D140084000204BE5
:10120000002A03DB1A4201D08B4312D10122049839
:101210009206904207DB0520400709181948014350
:10122000C012414004E0032040070818C10FC9075D
:10123000002007B0F0BD0020E907FAE706180C46C9
:101240004C4111487642A04114D394181A465A4191
:101250000D48644290410DD3012049004005814270
:1012600008D35900814205D3E90F054AC907002078
:101270001143DEE700200549DBE700000000FF071F
:101280000000F07FFFFFFF7F0000E0FF0000F87F1D
:101290000121C9050123411842001B06D3185B0E2A
:1012A0000BD0C1100722D2068918400752428A1873
:1012B00002D50922120789187047090208D501468C
:1012C000002A03D0C10FC90700207047104670479D
:1012D000420202D00020034970470721090501435B
:1012E000F4E700000000F87F7047FFB50C461E468B
:1012F0008FB003CA089009914F007D0D00D16D1E7B
:10130000002108460020C0460321099A89050840AB
:10131000002A03DA8200801840080840800D012866
:101320000A9002DD0020C0430A90089807430DD0C0
:10133000EF48F049281848430714189800281DD092
:101340007542291E1DDD0A9842421BE018980128AB
:1013500002D00020302104E00020F24305E02154B7
:10136000401CB042FBDB30460022189B0021215478
:101370000F998B600A60486013B0F0BDBD1B6D1CF7
:10138000DFE70A9A002900DA69420BA800F074FA34
:101390000BA803AB07C807C30899099800F0D2FA55
:1013A00001910146D44802920918002D00910ADDEE
:1013B000D14903980A9A4942401803A90390684604
:1013C00000F0E5FC07E003990A9A081803A90390C6
:1013D000684600F0B2FC009000040292000C0191FB
:1013E00003D00020C043410800E01046189A002AAC
:1013F00003D00022009215461EE0751E05D400F0B1
:10140000B9F9303262556D1EF9D5012208430796AD
:1014100002D000227F1C04E02078302801D1002275
:101420007F1E002A069788D01EE0112D07DA00F0F3
:10143000A1F9303262556D1C02460A43F5D10843CA
:101440000FD10021681E05E0235C625C6354491CD7
:101450002254401E8142F7DBA81B401E07950690D0
:1014600002E0009800280AD0079A18990020A0549A
:101470000F98079B069A4360026081607CE7112603
:101480000020189059E7D21DF0B50D460446D1084A
:1014900093B0C90003C90C900D9100F045FE0246BF
:1014A0000D98C00F01D02D2007E02068810701D5DD
:1014B0002B2002E04007C00F4001032A0F9001D00B
:1014C000072A05DB03462946204600F091F90DE185
:1014D0002078800601D5E76900E006272846652DBB
:1014E00004D0662814D0672D69D12DE00020112F7B
:1014F000009001DB112300E07B1C0CAA03A910A8BB
:10150000FFF7F3FE1199002610987D1C0E9142E022
:1015100001203B460CAAC0070B900120009003A9B4
:1015200010A8FFF7E2FE119D1298109900260028DE
:101530000E9501D1781C0D18781B02D44642761EF8
:101540007D1CE81B00903AE0012F00DA0127002003
:10155000112F009001DD112300E03B460CAA03A9E6
:1015600010A8FFF7C2FE11993D46109800260E9173
:10157000217809070BD40E99A94200DA0D4603A978
:10158000012D04DD4A19203AD27F302A06D0B84214
:1015900001DA011D04DA012100910FE06D1EEFE771
:1015A000002802DC86192D1A03E0411CA94200DD47
:1015B0000D46801B401C00900120C0070B90207836
:1015C000000705D40098A84202DB0020C043009029
:1015D00069460020C8720B98012102AF0337C90782
:1015E000884225D0022010902B2011900B980028C3
:1015F0000BDA40420B902D20119006E00B9800F082
:10160000F5FB30317F1E0B9039701099481E002970
:101610001090F3DC0B980028F0D111987F1E3870E1
:101620002088000501D5452000E065207F1E387028
:1016300001A8C01BC01D0B900F98002800D00120EE
:1016400041190098C01709180B980818A169081AC1
:10165000401EA0612078C00602D42046C046C04685
:101660000F98002805D06268A1689047206A401C46
:1016700020622078C00624D52046C046C04620E01F
:10168000002E07DB0E98B04204DD03A86268805D7F
:10169000A16802E06268A16830209047206A761C49
:1016A000401C20620098401E00900AD100F05EF8B5
:1016B000C06862680168405CA1689047206A401C6D
:1016C000206228466D1E0028DADC07E06268387860
:1016D000A1687F1C9047206A401C20620B99481E1D
:1016E00000290B90F2DC2046C046C046022043E6AB
:1016F00001FCFFFF104D0000E1DFFFFF0A681070E2
:10170000521C0A607047000010B5FF231B064400FE
:101710009C421DD84C009C421AD80346124A0B43E7
:1017200007D4401A02D3EFF3008010BDEFF300801E
:1017300010BD081A06D2EFF3008001219043C907BB
:10174000084302E0EFF30080904380F3008810BD6F
:101750000D231B041A4204D01146002000F05AFB4E
:1017600010BD00F06FFB10BD0000009000487047F6
:101770002C0000100B4670B502468907800808430C
:1017800019469D08141AA9412509080705430809A7
:101790002C194841250A01060D43010A2C19414123
:1017A000200C0D0428430D0C00194D410021401957
:1017B0004D41C00869070843E908840F8D0025439F
:1017C000840024184D4124196D41121BAB4107E0E0
:1017D0000925ED432C11521963410024401C61413D
:1017E0001C460A250026551BB441F1D270BD0000ED
:1017F000F8B51F46044601230068DB0203260146B4
:101800001840072A05DB002801D017A506E017A518
:1018100004E0002801D016A500E016A510208143A1
:101820002160A069C01E002FA06101D0401EA061F0
:101830002046C046C046002F09D038466268A168DD
:101840009047206A401C2062C01C206206E0206A8B
:10185000FAE762682878A1686D1C9047761EF8D276
:101860002046C046C046F8BD4E414E006E616E0037
:10187000494E4600696E6600F7B516468AB0304894
:1018800078446C4603467C33C06F5A689B680DC42D
:101890002B4B7B446E33083303AC0DCB0DC4372088
:1018A000C001081837211B3000F04CFB05460C46E0
:1018B000803D1B3C02D56442012000E0002000274F
:1018C00009900FE0E0070BD00C201D4978437944C4
:1018D00032464E394118684600F02FFA6B4607C36E
:1018E00064107F1C002CEDD1154F7F442E3F16E075
:1018F000E80712D02001C01901460EC906910893CD
:101900000792C068F04201D198190890324606A9A2
:1019100003A800F012FA03AB07C36D10641C002D7E
:10192000E6D1324669460998002803A802D000F0A3
:101930002EFA01E000F001FA0A9B07C30DB0F0BDDA
:10194000440C0000034640000A4610B5400D0BD081
:101950000121C9070F24A40200191C0364082143B4
:10196000540D2143D20207E000210120F2E7D40FF9
:10197000490021435200401E0029F8DADB0FDB0743
:10198000184310BDFFB50D46144685B04868516830
:1019900000F0B1FB00910190A868A16800F0ABFBDA
:1019A00002910390A868616800F0A5FB029A1218E2
:1019B0008242029201D2012000E00020019A0B181D
:1019C000D2180028019202D08A4202D903E08A424A
:1019D00001D2012000E000200099081800906868FA
:1019E000A16800F088FB029A12188242029201D28A
:1019F000012000E00020019A0B18D2180028019263
:101A000002D08A4202D903E08A4201D2012000E0DA
:101A100000200099081800902868216840004900BB
:101A2000400849084018EE49471814E00199400061
:101A3000C90F08430090019802994000C90F08435C
:101A40000190029803994000C90F0843029003983F
:101A500040007F1E039000980028E7DA08980028CD
:101A600001D0E04E00E00026B74228DAF71BF80666
:101A7000C00E15D0029B2021091A039A8B401A43ED
:101A80000392029A019BC2408B401A430292019A30
:101A9000009BC2408B4000991A430192C1400091C3
:101AA0007A110BD06B460320811A01D5002101E089
:101AB000890059588700401ED951F5D537460398FB
:101AC0000299002800D001200143089802910028C3
:101AD00008460CD0002800D001200199019A490540
:101AE00008430121D20AC902D202019200E0012179
:101AF0000E9B0122D207012B02D0002B03D013E052
:101B0000002807D116E0904204D890420CD1019BE6
:101B10000B4209D0019B5918019105D10099491C2C
:101B2000009101D17F1C0092002803D010210846AB
:101B30000020C04628682168019B009A4840C10FD8
:101B40000598C90739430EC009B0F0BDFFB587B08D
:101B5000099A089808995368926840688968964677
:101B60000022039317469446089A12685300099A74
:101B70005B081268520052089A1A9B4BD4180A9AB2
:101B8000002A01D0352200E04022069200220123E3
:101B900015460492DB07059324E0002D05D1754618
:101BA0000346039E4D1BB34109D375466646039B0E
:101BB000491B049D9841059B7519AC465F416346DE
:101BC0003B4308D0059B049EDD0776082E435B0847
:101BD0000496059301E0641E521EC50FED074918D7
:101BE0004041521C069B9A42D7DB002D04D175461A
:101BF000039A6B1A824101D203200CE0039A0B4630
:101C00006B404240134301D1022004E0014301D064
:101C1000012000E00020614601910021009702911F
:101C20000A99002905D06146400201436D4B01919C
:101C300002E08007002302909C423ADA1A1BD00689
:101C4000C00E15D0029D2021019C091AC5408C4070
:101C50002543029C8C4000D001242543019C029521
:101C60003D46C4408D4039462C43C140019400910B
:101C700054111DD06D460221002202290CD10320EF
:101C8000001B07E0002804DB8600AE59002E00D0C0
:101C90000122401C0328F5DB081B02D588002A50CE
:101CA00004E08000285810438A00A850491EE3D55C
:101CB0001C460A98002802980CD0002800D0012069
:101CC0000199019A490508430121D20AC902D202A9
:101CD000019200E00121109B0122D207012B02D0CA
:101CE000002B03D013E0002807D116E0904204D85F
:101CF00090420CD1019B0B4209D0019B59180191D4
:101D000005D10099491C009101D1641C0092002862
:101D100003D0102108460020C04608980999019A6E
:101D20000068096848400099C30F0798DB07234300
:101D30000360826041600BB0F0BD1FB500230092CC
:101D40000A46014601A8FFF71DFE01A807C804B016
:101D500010BD1FB5012300920A46014601A8FFF7F6
:101D600011FE01A80F2407C8A402C30F4000DB071F
:101D70004008001B002900DB00204900000549083D
:101D8000CC0A204349051843D20A1143DFE71FB5A7
:101D9000002300920A46014601A8FFF7D7FE01A8DA
:101DA00007C8D4E71FB5012300920A46014601A8DF
:101DB000FFF7CCFE01A80F2407C8A402C30F400000
:101DC000DB074008001B002900DB0020490000055C
:101DD0004908CC0A204349051843D20A1143B6E703
:101DE00002C0FFFF013C0000FF3F000001468008E9
:101DF000081A02091018020A1018020C1018C0085C
:101E0000820012185200891A01E00A39401C0A297E
:101E1000FBD27047CA0210D54A03520F04D0C80340
:101E2000C043012188407047054AEFF30081080153
:101E30000009104380F300887047002070470000BD
:101E40000000003010B5024800F01FF910BD00007E
:101E50000000C07F004870470C0000107546FFF777
:101E6000F9FFAE46050069465346C008C0008546E6
:101E700018B020B5FEF792F960BC00274908B646B5
:101E80000026C0C5C0C5C0C5C0C5C0C5C0C5C0C589
:101E9000C0C5403D49008D4670470446C046C04617
:101EA0002046FEF76AF90000024670B50A43920721
:101EB0002AD11E4DEE0104C808C9541B9443344076
:101EC00017D0D0B2D9B2401A2106014310D190B236
:101ED00099B2401A210401430AD110021902000AE2
:101EE000090A401A2102014302D1100E190E401AAC
:101EF00070BD9A42DFD010BA19BA884201D90120C8
:101F000070BD0020C04370BD02780B78401C491C96
:101F1000002A09D09A4207D102780B78401C491C4C
:101F2000002A01D09A42EFD0D01A70BD0101010100
:101F3000002203098B422CD3030A8B4211D30023C6
:101F40009C464EE003460B433CD4002243088B42A0
:101F500031D303098B421CD3030A8B4201D394462D
:101F60003FE0C3098B4201D3CB01C01A5241830920
:101F70008B4201D38B01C01A524143098B4201D3DA
:101F80004B01C01A524103098B4201D30B01C01A05
:101F90005241C3088B4201D3CB00C01A524183087F
:101FA0008B4201D38B00C01A524143088B4201D3AC
:101FB0004B00C01A5241411A00D20146524110460C
:101FC00070475DE0CA0F00D04942031000D3404281
:101FD000534000229C4603098B422DD3030A8B42B7
:101FE00012D3FC22890112BA030A8B420CD3890155
:101FF00092118B4208D3890192118B4204D389013B
:102000003AD0921100E08909C3098B4201D3CB0178
:10201000C01A524183098B4201D38B01C01A52412D
:1020200043098B4201D34B01C01A524103098B4231
:1020300001D30B01C01A5241C3088B4201D3CB001C
:10204000C01A524183088B4201D38B00C01A5241FF
:10205000D9D243088B4201D34B00C01A5241411AD6
:1020600000D20146634652415B10104601D3404204
:10207000002B00D54942704763465B1000D34042B5
:1020800001B50020C046C04602BD10B50C46110780
:10209000090F092904D00A290AD008290CD104E023
:1020A00011460820FFF7B6FE06E0510606D501E00E
:1020B000510601D50120C007214610BDD10607D524
:1020C00001010909CC084907000E0006044309E094
:1020D000410F20024907000A0143200E00061D227D
:1020E000D14101430846E7E701491820ABBEFEE7AE
:1020F000260002007047F8B5040C8BB2264682B267
:102100005E43104658430D0C370C360400218019ED
:10211000164679416E43370C3604801926467941BC
:102120006E438919F8BD00004900CA02104300D06F
:1021300004204A0D01D001221043054A490D914265
:1021400001D102210843012800D105207047000079
:10215000FF07000010B500290AD00878002807D032
:1021600005487844FFF7A0FE002801D0002010BDEC
:102170000248784410BD00001A0400001204000058
:1021800070B501250400ED074C4020D4441A01D25B
:10219000001B0919C60D4B00F2B2FF2A29D01B0EF5
:1021A0002CD000020C02D31A2C43DC402843051922
:1021B00010D2280A02D3401C6D0611D0761EF605F7
:1021C0008019FF2A00DA70BDC00DC00570BD6940DE
:1021D00000F0D0F801200543C541521C761CE8E709
:1021E00064089C40C90161408900E7D10124A043F3
:1021F000E4E71B0E440200D0034870BD002AFCD166
:10220000C00FC00770BD00BF0000C07F01230200E7
:10221000DB050A430DD4DA4203D49A4207D488423C
:102220007047D84214D4D94212D4884270478042B1
:102230007047DA4203D59A42F9D5814270475B0074
:102240004200DA4204D24A00DA4201D281427047A7
:1022500010B5024AFFF758FA10BD00BF0900160476
:1022600070B5420064414B005C41120E39D01B0E28
:1022700038D0FF2A3CD0FF2B3AD040024902400A16
:10228000490A060045184E43000A090AD218484375
:10229000ED017F3A0104731A4019190C4318990F84
:1022A00004D001215B0849075B1A521CD80904D3EA
:1022B000401CF50301D19D0607D0FF2A08D2D505A1
:1022C00006D0E4072043401970BD0125A843F4E778
:1022D000002A01DCE00770BD2402FF202043C00576
:1022E00070BD1B0EFF2A03D0FF2B01D0E00770BD8D
:1022F000FF2645003606B54206D84D00B54203D844
:10230000D218FF2A00D0E7E7004870BD0000C07F68
:1023100001230A00DB0502430DD4DA4203D49A42BA
:1023200007D481427047D94214D4D84212D4814292
:10233000704789427047DA4203D59A42F9D58842FC
:1023400070475B004A00DA4204D24200DA4201D20E
:10235000884270474840414010B5024A4840FFF764
:10236000D3F910BD0900160470B501250400ED076E
:102370004C4022D4441A02D26C40001B0919C60DED
:102380004B00F2B2FF2A4BD01B0E50D000020C02C1
:10239000D31A2C43DC40A843051B05D5AD0019D347
:1023A0006D08761E521E37D0F605280A01D2801914
:1023B00070BD70416D0603D070BD6940FFF7E6FE49
:1023C0009C4009026140490001D0401E70BD0124BB
:1023D000A04370BD6D081DD001202B0C01D12D0430
:1023E00010302B0E01D12D0208302B0F01D12D0101
:1023F000001DAB0F01D1AD00801CEB0F01D16D00B2
:10240000401C6D00361A121A680AF5054019012A97
:1024100002DB70BD002070BDC036300AC00770BD41
:102420001B0E440201D1FF2B00D1024870BD002ACF
:10243000F0D070BD0000C07F03B4024878448446E9
:1024400003BC604747F0FFFF80807F7E7D7C7B7A06
:102450007978777676757473727171706F6E6E6D50
:102460006C6C6B6A6A6968686766666564646363F6
:1024700062616160605F5F5E5E5D5D5C5C5B5B5A7C
:102480005A595958585757565655555554545353E9
:1024900052525251515050504F4F4F4E4E4D4D4D44
:1024A0004C4C4C4B4B4B4A4A4A494949484848478F
:1024B00047474746464645454544444444434343CD
:1024C000434242424241414102400000000000A01C
:1024D0000000000005400000000000C800000000EF
:1024E0000C4000000000409C00000000194000006B
:1024F0000020BCBE0000000034400000BFC91B8E9D
:1025000000000004B5400000504BCFD06607E2CF7A
:10251000010000006C4100003E8251AADFEEA734AA
:1025200001000000D9420000DCB5A0E23A301F975C
:10253000FFFFFFFFB4450000FD25A0C8E9A3C14F80
:10254000FFFFFFFFFF3F00000000008000000000D1
:10255000FF3F000000000080000000009825000000
:10256000000000100C00000004010000A425000081
:102570000C00001064020000200100001C0000009C
:1025800043000000F8FFFFFF0C0000000E000000F9
:102590000F0000002E00000000093D0000093D0072
:0425A00000093D00F1
:04000005000001896D
:00000001FF
