:020000040000FA
:10000000700200106901000071010000730100001E
:1000100000000000000000000000000000000000E0
:10002000000000000000000000000000750100005A
:1000300000000000000000007701000079010000CE
:100040007B0100007B0100007B0100007B010000C0
:100050007B0100007B0100007B0100007B010000B0
:100060007B0100007B0100007B0100007B010000A0
:100070007B0100007B0100007B0100007B01000090
:100080007B0100007B0100007B0100007B01000080
:100090007B0100007B0100007B0100007B01000070
:1000A0007B0100007B0100007B0100007B01000060
:1000B0007B0100007B0100007B0100007B01000050
:1000C00000F002F800F040F80CA030C808382418FE
:1000D0002D18A246671EAB4654465D46AC4201D180
:1000E00000F032F87E460F3E0FCCB6460126334272
:1000F00000D0FB1AA246AB4633431847A0040000C9
:10010000C0040000103A02D378C878C1FAD8520768
:1001100001D330C830C101D504680C6070470000BD
:100120000023002400250026103A01D378C1FBD813
:10013000520700D330C100D50B6070471FB5C046D1
:10014000C0461FBD10B510BD00F09BF81146FFF76B
:10015000F5FF00F081F900F0B3F803B4FFF7F2FF08
:1001600003BC00F0B7F80000074880470748004785
:10017000FEE7FEE7FEE7FEE7FEE7FEE70448054987
:10018000034A054B704700002B020000C10000002D
:100190007000001070020010700000103149324AE7
:1001A00011600021314A116001215160002151602C
:1001B0000121516000BF2D494968C907C90FFAD014
:1001C0002A4940398868400A40022021014303221D
:1001D0001143264A403A91602549896B8022914318
:1001E000234A916300BF21494039C968C907C90F33
:1001F000F9D003211D4A116301215163002151638C
:100200000121516300BF1949496BC907C90FFAD0D1
:100210000121164A9163144909688900154A116041
:1002200011460968144A1160704700B500200F4953
:10023000403908620E48806B202188430C4988634E
:10024000002300E05B1CFF2BFCD9FFF7A7FF07484A
:100250004030006801210904084304494031086026
:1002600000BD0000001BB7000000001040800440EB
:10027000008204400400001008000010704770471E
:100280007047754600F022F8AE46050069465346B1
:10029000C008C000854618B020B5FFF76FFF60BCEE
:1002A00000274908B6460026C0C5C0C5C0C5C0C5A0
:1002B000C0C5C0C5C0C5C0C5403D49008D467047DA
:1002C0000446C046C0462046FFF747FF0048704737
:1002D0000C00001001491820ABBEFEE7260002000A
:1002E0007047000000000000000000000000000057
:1002F000000000000000000000000000FFFFFFFF02
:100300000CE000BF00BF00BF00BF00BF00BF00BFC8
:1003100000BF00BF00BF00BF00BF00BF0146401EBE
:100320000029EED1704710B5044608E0002304E030
:10033000FA20FFF7E5FF581CC3B2042BF8DB204678
:10034000641E0028F2D110BD30B50446002509E036
:10035000FE207D49086018200860E1208000FFF73A
:10036000E2FF6D1CA542F3DD30BDFE20764908603A
:100370000120086070477C207349086009200860EC
:1003800070477C20704908600A2008607047F7B504
:100390000646144600250027012C06D100E07F1CEC
:1003A00028466D1C305C0028F9D100251DE0102D79
:1003B00014D1012C01D0022C08D1FE206249086022
:1003C000942008606420FFF7AEFF07E0FE205E493E
:1003D0000860C02008603220FFF7A5FF705D5A4911
:1003E00008600198FFF79FFF6D1C705D0028DED14B
:1003F000012C02D13846FFF7A7FF022C02D1534847
:10040000FFF7A2FFFEBD10B5002221E00BE0504B2C
:100410009B695B1C4E4CA36100E0491C4D4B99420B
:10042000FBDB0021401C0A28F1DB002000210BE04F
:10043000474B9B695B1E464CA36100E0491C454B42
:100440009942FBDB0021401C0A28F1DB002000213F
:10045000414B9A42DADB10BD00B54048806A012169
:1004600008433E4988623E48006801210903084369
:100470003B4908600846806904210843384988617F
:1004800031488068012108432F4988600846C068C8
:10049000802108432C49C860A72088622E2008606C
:1004A0000846C068802188432749C8600846C0685C
:1004B000032108432449C860294800688915084376
:1004C0002749086025488038806B0121084323496B
:1004D0008039886300201E4988612248C8600A204C
:1004E0004862084640690915084319494861184897
:1004F0004030406B0121084315494031486314489E
:1005000040680121084312494860FFF77CFF164804
:10051000FFF709FF0022642114A0FFF738FF6420D1
:10052000FFF701FFFFF721FF6420FFF7FCFE002229
:10053000642116A0FFF72BFF7D20C000FFF7F3FE1C
:10054000FFF713FF002000BD00800040FFFF0F00F9
:10055000000001409F860100E70300008040044046
:1005600080800440E02E0000C40900006573746FB1
:1005700020657320766964612E2E2E206C6F2064B6
:10058000656D617320736F6E000000006C696365B8
:100590006E636961646F732E2E2E0000BC0500002F
:1005A000000000100C00000004010000C80500005D
:1005B0000C000010640200002001000000093D0052
:0805C00000093D0000093D00A7
:04000005000001698D
:00000001FF
