:020000040000FA
:10000000700200106901000071010000730100001E
:1000100000000000000000000000000000000000E0
:10002000000000000000000000000000750100005A
:1000300000000000000000007701000079010000CE
:100040007B0100007B0100007B0100007B010000C0
:100050007B0100007B0100007B0100007B010000B0
:100060007B0100007B0100007B0100007B010000A0
:100070007B0100007B0100007B0100007B01000090
:100080007B0100007B0100007B0100007B01000080
:100090007B0100007B0100007B0100007B01000070
:1000A0007B0100007B0100007B0100007B01000060
:1000B0007B0100007B0100007B0100007B01000050
:1000C00000F002F800F040F80CA030C808382418FE
:1000D0002D18A246671EAB4654465D46AC4201D180
:1000E00000F032F87E460F3E0FCCB6460126334272
:1000F00000D0FB1AA246AB46334318473803000032
:1001000058030000103A02D378C878C1FAD85207D1
:1001100001D330C830C101D504680C6070470000BD
:100120000023002400250026103A01D378C1FBD813
:10013000520700D330C100D50B6070471FB5C046D1
:10014000C0461FBD10B510BD00F04AF91146FFF7BB
:10015000F5FF00F05DF800F0C8F803B4FFF7F2FF18
:1001600003BC00F061F900000748804707480047DA
:10017000FEE7FEE7FEE7FEE7FEE7FEE70448054987
:10018000034A054B704700008F030000C1000000C8
:100190007000001070020010700000100CE000BF32
:1001A00000BF00BF00BF00BF00BF00BF00BF00BF57
:1001B00000BF00BF00BF00BF0146401E0029EED1B6
:1001C000704710B5044608E0002304E0FA20FFF76A
:1001D000E5FF581CC3B2042BF8DB2046641E002840
:1001E000F2D110BD30B5054600240DE0102C04D12D
:1001F000FE2032490860C0200860285D2F49086051
:100200006420FFF7DEFF641C285D0028EED130BDBE
:1002100000B52B48806A0121084329498862294892
:1002200000680121090308432649086008468069DF
:10023000042108432349886120488068012108433C
:100240001E4988600846C068802108431B49C86071
:10025000A72088622E2008600846C0688021884355
:100260001649C8600846C068032108431349C8609E
:100270007D200001FFF7A5FF13A0FFF7B3FF0020CB
:1002800000BD30B50446002509E0FE200B4908609A
:1002900018200860E1208000FFF793FF6D1CA54245
:1002A000F3DD30BD7C2005490860092008607047F7
:1002B0007C20024908600A200860704700800040E6
:1002C0008040044080800440202079206573746F52
:1002D00020657320756E20202020206D656E73616F
:1002E0006A6500007047704770470446C046C046C4
:1002F0002046FFF732FF704700000000FFFFFFFFBE
:100300003149324A11600021314A116001215160A6
:10031000002151600121516000BF2D494968C90782
:10032000C90FFAD02A4940398868400A4002202182
:10033000014303221143264A403A91602549896BC3
:1003400080229143234A916300BF21494039C96803
:10035000C907C90FF9D003211D4A11630121516357
:10036000002151630121516300BF1949496BC9073D
:10037000C90FFAD00121164A91631449096889000E
:10038000154A116011460968144A1160704700B59A
:1003900000200F49403908620E48806B20218843B5
:1003A0000C498863002300E05B1CFF2BFCD9FFF79E
:1003B000A7FF0748403000680121090408430449A9
:1003C0004031086000BD0000001BB70000000010B5
:1003D0004080044000820440040000100800001027
:1003E000754600F01DF8AE46050069465346C00844
:1003F000C000854618B020B5FFF7C0FE60BC0027DE
:100400004908B6460026C0C5C0C5C0C5C0C5C0C5E0
:10041000C0C5C0C5C0C5403D49008D4670470000FD
:10042000004870470C00001001491820ABBEFEE7E1
:100430002600020054040000000000100C00000020
:1004400004010000600400000C00001064020000C1
:100450002001000000093D0000093D0000093D00A9
:04000005000001698D
:00000001FF
