:020000040000FA
:10000000700200106901000071010000730100001E
:1000100000000000000000000000000000000000E0
:10002000000000000000000000000000750100005A
:1000300000000000000000007701000079010000CE
:100040007B0100007B0100007B0100007B010000C0
:100050007B0100007B0100007B0100007B010000B0
:100060007B0100007B0100007B0100007B010000A0
:100070007B0100007B0100007B0100007B01000090
:100080007B0100007B0100007B0100007B01000080
:100090007B0100007B0100007B0100007B01000070
:1000A0007B0100007B0100007B0100007B01000060
:1000B0007B0100007B0100007B0100007B01000050
:1000C00000F002F800F040F80CA030C808382418FE
:1000D0002D18A246671EAB4654465D46AC4201D180
:1000E00000F032F87E460F3E0FCCB6460126334272
:1000F00000D0FB1AA246AB463343184768090000FC
:1001000088090000103A02D378C878C1FAD852079B
:1001100001D330C830C101D504680C6070470000BD
:100120000023002400250026103A01D378C1FBD813
:10013000520700D330C100D50B6070471FB5C046D1
:10014000C0461FBD10B510BD00F09BF81146FFF76B
:10015000F5FF00F031FA00F0B3F803B4FFF7F2FF57
:1001600003BC00F0B7F80000074880470748004785
:10017000FEE7FEE7FEE7FEE7FEE7FEE70448054987
:10018000034A054B704700002B020000C10000002D
:100190007000001070020010700000103149324AE7
:1001A00011600021314A116001215160002151602C
:1001B0000121516000BF2D494968C907C90FFAD014
:1001C0002A4940398868400A40022021014303221D
:1001D0001143264A403A91602549896B8022914318
:1001E000234A916300BF21494039C968C907C90F33
:1001F000F9D003211D4A116301215163002151638C
:100200000121516300BF1949496BC907C90FFAD0D1
:100210000121164A9163144909688900154A116041
:1002200011460968144A1160704700B500200F4953
:10023000403908620E48806B202188430C4988634E
:10024000002300E05B1CFF2BFCD9FFF7A7FF07484A
:100250004030006801210904084304494031086026
:1002600000BD0000001BB7000000001040800440EB
:10027000008204400400001008000010704770471E
:100280007047754600F022F8AE46050069465346B1
:10029000C008C000854618B020B5FFF76FFF60BCEE
:1002A00000274908B6460026C0C5C0C5C0C5C0C5A0
:1002B000C0C5C0C5C0C5C0C5403D49008D467047DA
:1002C0000446C046C0462046FFF747FF0048704737
:1002D0000C00001001491820ABBEFEE7260002000A
:1002E0007047000000000000000000000000000057
:1002F000000000000000000000000000FFFFFFFF02
:100300000CE000BF00BF00BF00BF00BF00BF00BFC8
:1003100000BF00BF00BF00BF00BF00BF0146401EBE
:100320000029EED1704710B5044608E0002304E030
:10033000FA20FFF7E5FF581CC3B2042BF8DB204678
:10034000641E0028F2D110BD30B50446002509E036
:10035000FE20FE49086018200860E1208000FFF7B9
:10036000E2FF6D1CA542F3DD30BDFE20F7490860B9
:10037000012008607047FE20F44908600C200860E6
:100380007047FE20F1490860082008607047FE2091
:10039000EE4908600D20086070477C20EB4908603A
:1003A0000920086070477C20E84908600A2008603E
:1003B0007047F7B50646144600250027012C06D1E4
:1003C00000E07F1C28466D1C305C0028F9D1002518
:1003D0001DE0102D14D1012C01D0022C08D1FE20DB
:1003E000DA490860942008606420FFF79CFF07E06A
:1003F000FE20D6490860C02008603220FFF793FF36
:10040000705DD24908600198FFF78DFF6D1C705D2B
:100410000028DED1012C02D13846FFF795FF022CCF
:1004200002D1CB48FFF790FFFEBD10B5002221E0BE
:100430000BE0C84B9B695B1CC64CA36100E0491CE8
:10044000C54B9942FBDB0021401C0A28F1DB002050
:1004500000210BE0BF4B9B695B1EBE4CA36100E01B
:10046000491CBD4B9942FBDB0021401C0A28F1DBF3
:1004700000200021B94B9A42DADB10BDB848806BEE
:1004800010218843B6498863B648006801214903B2
:100490000843B4490860B448406B8F218843B2498F
:1004A00048630846406B0A210843AF494863AF4898
:1004B000AF49086008460068AE490840AC4908608A
:1004C0000846006889028843A94908607047A84A1D
:1004D000126801231B061A43A54B1A6000BFA44AE9
:1004E0005268D20FD207FAD0A14A116912680723C5
:1004F0001B069A439E4B1A600A04900D70479A4857
:100500004030806A0121084397494031886295480C
:100510000068012109030843924908600846806980
:10052000042108438F498861884880680121084375
:10053000864988600846C068802108438349C860AE
:10054000A72088622E2008600846C0688021884362
:100550007E49C8600846C068032108437B49C860DB
:10056000704780480068FF21013108437D490860D9
:100570007D484038806B012108437B4940398863BE
:100580000020744988617C48C8600A204862084697
:100590004069091508436F4948616E484030406B17
:1005A000012108436B49403148636A484068012192
:1005B00008436849486070470024FFF7A0FFFFF731
:1005C0005DFF6A483D38FFF7AEFE002264216BA054
:1005D000FFF7EFFEFF20F530FFF7A5FEFFF7C5FEA2
:1005E000E0E1FFF774FF04460022642167A0FFF7F3
:1005F000E0FE6420FFF797FEFFF7B7FEFF20F5301F
:1006000084420ADA0022642164A0FFF7D2FE574830
:100610003D38FFF788FEFFF7A8FEFF20F530844243
:100620000EDBFF20FF3084420ADA002264215EA044
:10063000FFF7BFFE4D483D38FFF775FEFFF795FE0B
:10064000FF20FF3084420EDB4120C00084420ADAE2
:100650000022642158A0FFF7ACFE44483D38FFF764
:1006600062FEFFF782FE4120C00084420DDB564847
:1006700084420ADA0022642154A0FFF79AFE3B4824
:100680003D38FFF750FEFFF770FE4F4884420EDB07
:100690008720800084420ADA002264214FA0FFF7FD
:1006A00088FE32483D38FFF73EFEFFF75EFE8720AA
:1006B000800084420EDB4448143084420ADA00226F
:1006C00064214AA0FFF775FE28483D38FFF72BFE4E
:1006D000FFF74BFE3C48143084420EDB2320000120
:1006E00084420ADA0022642144A0FFF762FE1F4818
:1006F0003D38FFF718FEFFF738FE23200001844243
:100700000EDB3148283084420ADA002264213FA0FF
:10071000FFF74FFE15483D38FFF705FEFFF725FEB2
:100720002948283084420EDB9120800084420ADA76
:100730000022642139A0FFF73CFE0C483D38FFF74A
:10074000F2FDFFF712FE912080006FE00080004074
:10075000FFFF0F00000001409F860100E70300003B
:10076000008204408080044040400440010A0000B0
:1007700000C00140FFFFFCFEE02E00007369206511
:100780006E6369656E64652E2E2E0000656E747250
:100790006F20616C207768696C6500006D656E6F15
:1007A00072206120353030006465203530302061A2
:1007B0002035313000000000646520353130206183
:1007C0002035323000000000120200006465203540
:1007D0003230206120353330000000006465203560
:1007E000333020612035343000000000646520354E
:1007F000343020612035353000000000646520353C
:100800003530206120353630000000006465203529
:100810003630206120353730000000006465203517
:1008200037302061203538300000000084420CDB76
:100830005D48844209DA002264215CA0FFF7B9FD1B
:100840005E48FFF770FDFFF790FD574884420DDBCF
:100850004B20C000844209DA0022642158A0FFF72F
:10086000A8FD5648FFF75FFDFFF77FFD4B20C00056
:1008700084420DDBAF208000844209DA002264212B
:1008800053A0FFF796FD4D48FFF74DFDFFF76DFDB7
:10089000AF20800084420DDB19204001844209DA38
:1008A000002264214EA0FFF784FD4448FFF73BFD82
:1008B000FFF75BFD1920400184420DDBE120800041
:1008C000844209DA0022642149A0FFF772FD3B4807
:1008D000FFF729FDFFF749FDE120800084420DDB91
:1008E0007D20C000844209DA0022642144A0FFF781
:1008F00060FD3248FFF717FDFFF737FD7D20C00090
:1009000084420CDB4248844209DA0022642141A07F
:10091000FFF74FFD2948FFF706FDFFF726FD3C488E
:1009200084420DDB4B200001844209DA002264215D
:100930003CA0FFF73EFD2148FFF7F5FCFFF715FD52
:100940004B20000184420DDB3148C830844209DA73
:100950000022642137A0FFF72CFD1848FFF7E3FCC5
:10096000FFF703FD2A48C83084420DDBAF20C000EA
:10097000844209DA0022642132A0FFF71AFD0F48F1
:10098000FFF7D1FCFFF7F1FCAF20C000844209DB88
:10099000002264212FA0FFF70CFD0848FFF7C3FCDD
:1009A000FFF7E3FC1DE600004E0200006465203501
:1009B000383020612035393000000000C4090000C3
:1009C0006465203539302061203630300000000069
:1009D0006465203630302061203730300000000060
:1009E000646520373030206120383030000000004E
:1009F000646520383030206120393030000000003C
:100A00006465203930302061203130303000000002
:100A10004C040000646520313030302061203131D9
:100A200030300000646520313130302061203132B7
:100A300030300000646520313230302061203133A5
:100A40003030000064652031333030206120313493
:100A5000303000006D61796F7220612031343030A8
:100A600000000000840A0000000000100C000000DC
:100A700004010000900A00000C0000106402000055
:100A80002001000000093D0000093D0000093D0073
:04000005000001698D
:00000001FF
