:020000040000FA
:10000000700200106901000071010000730100001E
:1000100000000000000000000000000000000000E0
:10002000000000000000000000000000750100005A
:1000300000000000000000007701000079010000CE
:100040007B0100007B0100007B0100007B010000C0
:100050007B0100007B0100007B0100007B010000B0
:100060007B0100007B0100007B0100007B010000A0
:100070007B0100007B0100007B0100007B01000090
:100080007B0100007B0100007B0100007B01000080
:100090007B0100007B0100007B0100007B01000070
:1000A0007B0100007B0100007B0100007B01000060
:1000B0007B0100007B0100007B0100007B01000050
:1000C00000F002F800F040F80CA030C808382418FE
:1000D0002D18A246671EAB4654465D46AC4201D180
:1000E00000F032F87E460F3E0FCCB6460126334272
:1000F00000D0FB1AA246AB46334318471C0400004D
:100100003C040000103A02D378C878C1FAD85207EC
:1001100001D330C830C101D504680C6070470000BD
:100120000023002400250026103A01D378C1FBD813
:10013000520700D330C100D50B6070471FB5C046D1
:10014000C0461FBD10B510BD00F09BF81146FFF76B
:10015000F5FF00F049F900F0B3F803B4FFF7F2FF40
:1001600003BC00F0B7F80000074880470748004785
:10017000FEE7FEE7FEE7FEE7FEE7FEE70448054987
:10018000034A054B704700002B020000C10000002D
:100190007000001070020010700000103149324AE7
:1001A00011600021314A116001215160002151602C
:1001B0000121516000BF2D494968C907C90FFAD014
:1001C0002A4940398868400A40022021014303221D
:1001D0001143264A403A91602549896B8022914318
:1001E000234A916300BF21494039C968C907C90F33
:1001F000F9D003211D4A116301215163002151638C
:100200000121516300BF1949496BC907C90FFAD0D1
:100210000121164A9163144909688900154A116041
:1002200011460968144A1160704700B500200F4953
:10023000403908620E48806B202188430C4988634E
:10024000002300E05B1CFF2BFCD9FFF7A7FF07484A
:100250004030006801210904084304494031086026
:1002600000BD0000001BB7000000001040800440EB
:10027000008204400400001008000010704770471E
:100280007047754600F022F8AE46050069465346B1
:10029000C008C000854618B020B5FFF76FFF60BCEE
:1002A00000274908B6460026C0C5C0C5C0C5C0C5A0
:1002B000C0C5C0C5C0C5C0C5403D49008D467047DA
:1002C0000446C046C0462046FFF747FF0048704737
:1002D0000C00001001491820ABBEFEE7260002000A
:1002E0007047000000000000000000000000000057
:1002F000000000000000000000000000FFFFFFFF02
:100300000CE000BF00BF00BF00BF00BF00BF00BFC8
:1003100000BF00BF00BF00BF00BF00BF0146401EBE
:100320000029EED1704710B5044608E0002304E030
:10033000FA20FFF7E5FF581CC3B2042BF8DB204678
:10034000641E0028F2D110BD30B50446002509E036
:10035000FE205849086018200860E1208000FFF75F
:10036000E2FF6D1CA542F3DD30BDF7B5064614462D
:1003700000250027012C06D100E07F1C28466D1CBB
:10038000305C0028F9D100251AE0102D11D1012C84
:1003900001D0022C08D1FE20464908609420086054
:1003A0006420FFF7C0FF04E0FE2042490860C0203F
:1003B0000860705D3F4908600198FFF7B4FF6D1C4D
:1003C000705D0028E1D1012C02D13846FFF7BCFF57
:1003D000022C02D13848FFF7B7FFFEBDFE20354999
:1003E000086001200860704700B53448806A012128
:1003F00008433249886232480068012109030843F2
:100400002F49086008468069042108432C49886107
:100410002848806801210843264988600846C0684A
:10042000802108432349C860A72088622E200860E5
:100430000846C068802188431E49C8600846C068D5
:10044000032108431B49C8607D200001FFF76BFFB3
:10045000002264211BA0FFF788FF7D20C000FFF76A
:1004600062FFFFF7BBFF7D20C000FFF75CFF0122AA
:1004700064211DA0FFF779FF7D20C000FFF753FF27
:10048000FFF7ACFF7D20C000FFF74DFF0222642183
:100490001BA0FFF76AFF002000BD7C200549086013
:1004A0000920086070477C20024908600A20086023
:1004B0007047000000800040FFFF0F0080400440B4
:1004C00080800440202020206573746F2065732095
:1004D000756E20206D656E73616A65206573746149
:1004E0007469636F00000000657374652073652094
:1004F0007075656465206465736C697A617200006B
:10050000792065737465206573746520657320694F
:100510006E66696E69746F00380500000000001097
:100520000C00000004010000440500000C00001055
:10053000640200002001000000093D0000093D00A8
:0405400000093D0071
:04000005000001698D
:00000001FF
